{
  "address": "0x5FC8d32690cc91D4c39d9d3abcBD16989F875707",
  "abi": [
    {
      "inputs": [
        {
          "internalType": "address",
          "name": "_zkProofVerifier",
          "type": "address"
        }
      ],
      "stateMutability": "nonpayable",
      "type": "constructor"
    },
    {
      "anonymous": false,
      "inputs": [
        {
          "indexed": true,
          "internalType": "address",
          "name": "user",
          "type": "address"
        },
        {
          "indexed": true,
          "internalType": "uint256",
          "name": "eventId",
          "type": "uint256"
        },
        {
          "indexed": false,
          "internalType": "enum AgeRestrictionVerifier.AgeRestriction",
          "name": "ageGroup",
          "type": "uint8"
        }
      ],
      "name": "AgeVerificationSuccessful",
      "type": "event"
    },
    {
      "inputs": [
        {
          "internalType": "address",
          "name": "",
          "type": "address"
        },
        {
          "internalType": "uint256",
          "name": "",
          "type": "uint256"
        }
      ],
      "name": "isAgeVerified",
      "outputs": [
        {
          "internalType": "bool",
          "name": "",
          "type": "bool"
        }
      ],
      "stateMutability": "view",
      "type": "function"
    },
    {
      "inputs": [
        {
          "internalType": "address",
          "name": "user",
          "type": "address"
        },
        {
          "internalType": "uint256",
          "name": "eventId",
          "type": "uint256"
        }
      ],
      "name": "isVerifiedForEvent",
      "outputs": [
        {
          "internalType": "bool",
          "name": "",
          "type": "bool"
        }
      ],
      "stateMutability": "view",
      "type": "function"
    },
    {
      "inputs": [
        {
          "internalType": "address",
          "name": "",
          "type": "address"
        },
        {
          "internalType": "uint256",
          "name": "",
          "type": "uint256"
        }
      ],
      "name": "proofHash",
      "outputs": [
        {
          "internalType": "bytes32",
          "name": "",
          "type": "bytes32"
        }
      ],
      "stateMutability": "view",
      "type": "function"
    },
    {
      "inputs": [
        {
          "internalType": "uint256[2]",
          "name": "a",
          "type": "uint256[2]"
        },
        {
          "internalType": "uint256[2][2]",
          "name": "b",
          "type": "uint256[2][2]"
        },
        {
          "internalType": "uint256[2]",
          "name": "c",
          "type": "uint256[2]"
        },
        {
          "internalType": "uint256[5]",
          "name": "input",
          "type": "uint256[5]"
        },
        {
          "internalType": "uint256",
          "name": "eventId",
          "type": "uint256"
        },
        {
          "internalType": "enum AgeRestrictionVerifier.AgeRestriction",
          "name": "requiredAgeGroup",
          "type": "uint8"
        }
      ],
      "name": "verifyAge",
      "outputs": [
        {
          "internalType": "bool",
          "name": "",
          "type": "bool"
        }
      ],
      "stateMutability": "nonpayable",
      "type": "function"
    },
    {
      "inputs": [],
      "name": "zkProofVerifier",
      "outputs": [
        {
          "internalType": "contract IZkProofVerifier",
          "name": "",
          "type": "address"
        }
      ],
      "stateMutability": "view",
      "type": "function"
    }
  ],
  "transactionHash": "0xf341ded7034c11b5869ff1508d53ac4f9416788d296ad40c7f5375dd32f71c76",
  "args": [
    "0xDc64a140Aa3E981100a9becA4E685f962f0cF6C9"
  ],
  "numDeployments": 1,
  "solcInputHash": "150eb236d96d3a7fbcf185319ee8b074",
  "bytecode": "0x60803461007457601f61068338819003918201601f19168301916001600160401b038311848410176100795780849260209460405283398101031261007457516001600160a01b0381169081900361007457600080546001600160a01b0319169190911790556040516105f390816100908239f35b600080fd5b634e487b7160e01b600052604160045260246000fdfe60806040818152600436101561001457600080fd5b600091823560e01c9081632beb449e1461044357508063349187ac1461042e5780635f499229146103f9578063642f2d93146100965763ff8a54fa1461005957600080fd5b346100925760ff8160209361006d36610467565b6001600160a01b03909116825260018652828220908252855220549151911615158152f35b5080fd5b5034610092576101e03660031901126100925736602312156100925780516100bd81610492565b80366044116103f5576004905b604482106103e557505036606312156103e15781516100e881610492565b60c49181368411610345576044905b8482106103855750503660e3121561038157835161011481610492565b806101049436861161035957905b8582106103715750503661012312156103455784519360a0850185811067ffffffffffffffff82111761035d5786528490366101a41161035957905b6101a4821061034957505060046101c435101561034557855485516334baeab960e01b81529060209082906001600160a01b031681806101a48a888b8b6004860161050e565b03915afa90811561033b5787916102fc575b50156102c4576020840151926101c435841061028057610216903388526001602052610208878920966101a43597888b52602052888a20600160ff19825416179055885194859360208501978861050e565b03601f1981018352826104c4565b519020338552600260205283852083865260205283852055600481101561026c576020935082519081527f7e65883aaa5b6abe278014534880480f195439391dc1d886f99282153a697b9d843392a35160018152f35b634e487b7160e01b84526021600452602484fd5b855162461bcd60e51b815260206004820152601760248201527f41676520726571756972656d656e74206e6f74206d65740000000000000000006044820152606490fd5b845162461bcd60e51b815260206004820152601160248201527024b73b30b634b21030b3b290383937b7b360791b6044820152606490fd5b90506020813d602011610333575b81610317602093836104c4565b8101031261032f5751801515810361032f57386101b6565b8680fd5b3d915061030a565b86513d89823e3d90fd5b8580fd5b813581526020918201910161015e565b8780fd5b634e487b7160e01b88526041600452602488fd5b8135815260209182019101610122565b8480fd5b36601f8301121561032f57855161039b81610492565b808784013681116103dd5791889285949294905b8082106103c7575050815292019160200190506100f7565b813586526020958601958b9550909101906103af565b8980fd5b8280fd5b81358152602091820191016100ca565b8380fd5b5034610092578060209261040c36610467565b6001600160a01b03909116825260028552828220908252845220549051908152f35b50346100925760ff8160209361006d36610467565b83903461009257816003193601126100925790546001600160a01b03168152602090f35b604090600319011261048d576004356001600160a01b038116810361048d579060243590565b600080fd5b6040810190811067ffffffffffffffff8211176104ae57604052565b634e487b7160e01b600052604160045260246000fd5b90601f8019910116810190811067ffffffffffffffff8211176104ae57604052565b6000915b600283106104f757505050565b6001908251815260208091019201920191906104ea565b9293949094610522846101a08101976104e6565b60409182850193916000945b600280871015610579578590855183906000915b83831061055f57505050506020906001920194019501949261052e565b815181528994506001929092019160209182019101610542565b5050949250946101009350610593915060c08301906104e6565b01906000915b600583106105a657505050565b60019082518152602080910192019201919061059956fea264697066735822122003134f2a2426415301e814e8aaa6e9c08d0648637bd9bdc14aa08578c9aac7bf64736f6c63430008140033",
  "devdoc": {
    "kind": "dev",
    "methods": {},
    "version": 1
  },
  "userdoc": {
    "kind": "user",
    "methods": {
      "isVerifiedForEvent(address,uint256)": {
        "notice": "Check if user is age-verified for an event Returns true/false without revealing age"
      },
      "verifyAge(uint256[2],uint256[2][2],uint256[2],uint256[5],uint256,uint8)": {
        "notice": "Verify age via zero-knowledge proof Input[0] = aadharHash Input[1] = publicAgeGroup (0, 1, 2, 3) Input[2] = isAdult Input[3] = ageGroupCommit Input[4] = currentTimestamp"
      }
    },
    "version": 1
  },
  "storageLayout": {
    "storage": [
      {
        "astId": 6629,
        "contract": "contracts/AgeRestrictionVerifier.sol:AgeRestrictionVerifier",
        "label": "zkProofVerifier",
        "offset": 0,
        "slot": "0",
        "type": "t_contract(IZkProofVerifier)6626"
      },
      {
        "astId": 6640,
        "contract": "contracts/AgeRestrictionVerifier.sol:AgeRestrictionVerifier",
        "label": "isAgeVerified",
        "offset": 0,
        "slot": "1",
        "type": "t_mapping(t_address,t_mapping(t_uint256,t_bool))"
      },
      {
        "astId": 6646,
        "contract": "contracts/AgeRestrictionVerifier.sol:AgeRestrictionVerifier",
        "label": "proofHash",
        "offset": 0,
        "slot": "2",
        "type": "t_mapping(t_address,t_mapping(t_uint256,t_bytes32))"
      }
    ],
    "types": {
      "t_address": {
        "encoding": "inplace",
        "label": "address",
        "numberOfBytes": "20"
      },
      "t_bool": {
        "encoding": "inplace",
        "label": "bool",
        "numberOfBytes": "1"
      },
      "t_bytes32": {
        "encoding": "inplace",
        "label": "bytes32",
        "numberOfBytes": "32"
      },
      "t_contract(IZkProofVerifier)6626": {
        "encoding": "inplace",
        "label": "contract IZkProofVerifier",
        "numberOfBytes": "20"
      },
      "t_mapping(t_address,t_mapping(t_uint256,t_bool))": {
        "encoding": "mapping",
        "key": "t_address",
        "label": "mapping(address => mapping(uint256 => bool))",
        "numberOfBytes": "32",
        "value": "t_mapping(t_uint256,t_bool)"
      },
      "t_mapping(t_address,t_mapping(t_uint256,t_bytes32))": {
        "encoding": "mapping",
        "key": "t_address",
        "label": "mapping(address => mapping(uint256 => bytes32))",
        "numberOfBytes": "32",
        "value": "t_mapping(t_uint256,t_bytes32)"
      },
      "t_mapping(t_uint256,t_bool)": {
        "encoding": "mapping",
        "key": "t_uint256",
        "label": "mapping(uint256 => bool)",
        "numberOfBytes": "32",
        "value": "t_bool"
      },
      "t_mapping(t_uint256,t_bytes32)": {
        "encoding": "mapping",
        "key": "t_uint256",
        "label": "mapping(uint256 => bytes32)",
        "numberOfBytes": "32",
        "value": "t_bytes32"
      },
      "t_uint256": {
        "encoding": "inplace",
        "label": "uint256",
        "numberOfBytes": "32"
      }
    }
  }
}