{
  "address": "0x2279B7A0a67DB372996a5FaB50D91eAA73d2eBe6",
  "abi": [
    {
      "inputs": [
        {
          "internalType": "address",
          "name": "_registry",
          "type": "address"
        },
        {
          "internalType": "address",
          "name": "_ageVerifier",
          "type": "address"
        }
      ],
      "stateMutability": "nonpayable",
      "type": "constructor"
    },
    {
      "inputs": [
        {
          "internalType": "address",
          "name": "sender",
          "type": "address"
        },
        {
          "internalType": "uint256",
          "name": "tokenId",
          "type": "uint256"
        },
        {
          "internalType": "address",
          "name": "owner",
          "type": "address"
        }
      ],
      "name": "ERC721IncorrectOwner",
      "type": "error"
    },
    {
      "inputs": [
        {
          "internalType": "address",
          "name": "operator",
          "type": "address"
        },
        {
          "internalType": "uint256",
          "name": "tokenId",
          "type": "uint256"
        }
      ],
      "name": "ERC721InsufficientApproval",
      "type": "error"
    },
    {
      "inputs": [
        {
          "internalType": "address",
          "name": "approver",
          "type": "address"
        }
      ],
      "name": "ERC721InvalidApprover",
      "type": "error"
    },
    {
      "inputs": [
        {
          "internalType": "address",
          "name": "operator",
          "type": "address"
        }
      ],
      "name": "ERC721InvalidOperator",
      "type": "error"
    },
    {
      "inputs": [
        {
          "internalType": "address",
          "name": "owner",
          "type": "address"
        }
      ],
      "name": "ERC721InvalidOwner",
      "type": "error"
    },
    {
      "inputs": [
        {
          "internalType": "address",
          "name": "receiver",
          "type": "address"
        }
      ],
      "name": "ERC721InvalidReceiver",
      "type": "error"
    },
    {
      "inputs": [
        {
          "internalType": "address",
          "name": "sender",
          "type": "address"
        }
      ],
      "name": "ERC721InvalidSender",
      "type": "error"
    },
    {
      "inputs": [
        {
          "internalType": "uint256",
          "name": "tokenId",
          "type": "uint256"
        }
      ],
      "name": "ERC721NonexistentToken",
      "type": "error"
    },
    {
      "inputs": [
        {
          "internalType": "address",
          "name": "owner",
          "type": "address"
        }
      ],
      "name": "OwnableInvalidOwner",
      "type": "error"
    },
    {
      "inputs": [
        {
          "internalType": "address",
          "name": "account",
          "type": "address"
        }
      ],
      "name": "OwnableUnauthorizedAccount",
      "type": "error"
    },
    {
      "anonymous": false,
      "inputs": [
        {
          "indexed": true,
          "internalType": "uint256",
          "name": "tokenId",
          "type": "uint256"
        },
        {
          "indexed": false,
          "internalType": "uint256",
          "name": "minAge",
          "type": "uint256"
        }
      ],
      "name": "AgeRestrictionApplied",
      "type": "event"
    },
    {
      "anonymous": false,
      "inputs": [
        {
          "indexed": true,
          "internalType": "address",
          "name": "owner",
          "type": "address"
        },
        {
          "indexed": true,
          "internalType": "address",
          "name": "approved",
          "type": "address"
        },
        {
          "indexed": true,
          "internalType": "uint256",
          "name": "tokenId",
          "type": "uint256"
        }
      ],
      "name": "Approval",
      "type": "event"
    },
    {
      "anonymous": false,
      "inputs": [
        {
          "indexed": true,
          "internalType": "address",
          "name": "owner",
          "type": "address"
        },
        {
          "indexed": true,
          "internalType": "address",
          "name": "operator",
          "type": "address"
        },
        {
          "indexed": false,
          "internalType": "bool",
          "name": "approved",
          "type": "bool"
        }
      ],
      "name": "ApprovalForAll",
      "type": "event"
    },
    {
      "anonymous": false,
      "inputs": [
        {
          "indexed": true,
          "internalType": "uint256",
          "name": "eventId",
          "type": "uint256"
        }
      ],
      "name": "EventCancelled",
      "type": "event"
    },
    {
      "anonymous": false,
      "inputs": [
        {
          "indexed": true,
          "internalType": "uint256",
          "name": "eventId",
          "type": "uint256"
        },
        {
          "indexed": false,
          "internalType": "uint256",
          "name": "amount",
          "type": "uint256"
        }
      ],
      "name": "FundsWithdrawn",
      "type": "event"
    },
    {
      "anonymous": false,
      "inputs": [
        {
          "indexed": true,
          "internalType": "address",
          "name": "previousOwner",
          "type": "address"
        },
        {
          "indexed": true,
          "internalType": "address",
          "name": "newOwner",
          "type": "address"
        }
      ],
      "name": "OwnershipTransferred",
      "type": "event"
    },
    {
      "anonymous": false,
      "inputs": [
        {
          "indexed": true,
          "internalType": "uint256",
          "name": "tokenId",
          "type": "uint256"
        },
        {
          "indexed": true,
          "internalType": "address",
          "name": "claimant",
          "type": "address"
        },
        {
          "indexed": false,
          "internalType": "uint256",
          "name": "amount",
          "type": "uint256"
        }
      ],
      "name": "RefundClaimed",
      "type": "event"
    },
    {
      "anonymous": false,
      "inputs": [
        {
          "indexed": true,
          "internalType": "address",
          "name": "buyer",
          "type": "address"
        },
        {
          "indexed": true,
          "internalType": "uint256",
          "name": "eventId",
          "type": "uint256"
        },
        {
          "indexed": false,
          "internalType": "uint256",
          "name": "tokenId",
          "type": "uint256"
        }
      ],
      "name": "TicketMinted",
      "type": "event"
    },
    {
      "anonymous": false,
      "inputs": [
        {
          "indexed": true,
          "internalType": "uint256",
          "name": "tokenId",
          "type": "uint256"
        },
        {
          "indexed": true,
          "internalType": "address",
          "name": "newOwner",
          "type": "address"
        }
      ],
      "name": "TicketResold",
      "type": "event"
    },
    {
      "anonymous": false,
      "inputs": [
        {
          "indexed": true,
          "internalType": "uint256",
          "name": "tokenId",
          "type": "uint256"
        },
        {
          "indexed": false,
          "internalType": "bool",
          "name": "attended",
          "type": "bool"
        }
      ],
      "name": "TicketVerified",
      "type": "event"
    },
    {
      "anonymous": false,
      "inputs": [
        {
          "indexed": true,
          "internalType": "address",
          "name": "from",
          "type": "address"
        },
        {
          "indexed": true,
          "internalType": "address",
          "name": "to",
          "type": "address"
        },
        {
          "indexed": true,
          "internalType": "uint256",
          "name": "tokenId",
          "type": "uint256"
        }
      ],
      "name": "Transfer",
      "type": "event"
    },
    {
      "inputs": [],
      "name": "ageVerifier",
      "outputs": [
        {
          "internalType": "contract AgeRestrictionVerifier",
          "name": "",
          "type": "address"
        }
      ],
      "stateMutability": "view",
      "type": "function"
    },
    {
      "inputs": [
        {
          "internalType": "address",
          "name": "to",
          "type": "address"
        },
        {
          "internalType": "uint256",
          "name": "tokenId",
          "type": "uint256"
        }
      ],
      "name": "approve",
      "outputs": [],
      "stateMutability": "nonpayable",
      "type": "function"
    },
    {
      "inputs": [
        {
          "internalType": "address",
          "name": "owner",
          "type": "address"
        }
      ],
      "name": "balanceOf",
      "outputs": [
        {
          "internalType": "uint256",
          "name": "",
          "type": "uint256"
        }
      ],
      "stateMutability": "view",
      "type": "function"
    },
    {
      "inputs": [
        {
          "internalType": "uint256",
          "name": "eventId",
          "type": "uint256"
        }
      ],
      "name": "cancelEvent",
      "outputs": [],
      "stateMutability": "nonpayable",
      "type": "function"
    },
    {
      "inputs": [
        {
          "internalType": "uint256",
          "name": "tokenId",
          "type": "uint256"
        }
      ],
      "name": "claimRefund",
      "outputs": [],
      "stateMutability": "nonpayable",
      "type": "function"
    },
    {
      "inputs": [
        {
          "internalType": "uint256",
          "name": "",
          "type": "uint256"
        }
      ],
      "name": "escrowBalance",
      "outputs": [
        {
          "internalType": "uint256",
          "name": "",
          "type": "uint256"
        }
      ],
      "stateMutability": "view",
      "type": "function"
    },
    {
      "inputs": [
        {
          "internalType": "uint256",
          "name": "",
          "type": "uint256"
        }
      ],
      "name": "eventCancelled",
      "outputs": [
        {
          "internalType": "bool",
          "name": "",
          "type": "bool"
        }
      ],
      "stateMutability": "view",
      "type": "function"
    },
    {
      "inputs": [
        {
          "internalType": "uint256",
          "name": "",
          "type": "uint256"
        }
      ],
      "name": "fundsWithdrawn",
      "outputs": [
        {
          "internalType": "bool",
          "name": "",
          "type": "bool"
        }
      ],
      "stateMutability": "view",
      "type": "function"
    },
    {
      "inputs": [
        {
          "internalType": "uint256",
          "name": "tokenId",
          "type": "uint256"
        }
      ],
      "name": "getApproved",
      "outputs": [
        {
          "internalType": "address",
          "name": "",
          "type": "address"
        }
      ],
      "stateMutability": "view",
      "type": "function"
    },
    {
      "inputs": [
        {
          "internalType": "uint256",
          "name": "tokenId",
          "type": "uint256"
        }
      ],
      "name": "getTicketMetadata",
      "outputs": [
        {
          "components": [
            {
              "internalType": "uint256",
              "name": "eventId",
              "type": "uint256"
            },
            {
              "internalType": "uint256",
              "name": "price",
              "type": "uint256"
            },
            {
              "internalType": "bool",
              "name": "attended",
              "type": "bool"
            },
            {
              "internalType": "bool",
              "name": "resold",
              "type": "bool"
            },
            {
              "internalType": "uint256",
              "name": "originalPrice",
              "type": "uint256"
            },
            {
              "internalType": "bool",
              "name": "requiresAgeVerification",
              "type": "bool"
            },
            {
              "internalType": "uint256",
              "name": "requiredAge",
              "type": "uint256"
            }
          ],
          "internalType": "struct EventTicket.TicketMetadata",
          "name": "",
          "type": "tuple"
        }
      ],
      "stateMutability": "view",
      "type": "function"
    },
    {
      "inputs": [
        {
          "internalType": "address",
          "name": "owner",
          "type": "address"
        },
        {
          "internalType": "address",
          "name": "operator",
          "type": "address"
        }
      ],
      "name": "isApprovedForAll",
      "outputs": [
        {
          "internalType": "bool",
          "name": "",
          "type": "bool"
        }
      ],
      "stateMutability": "view",
      "type": "function"
    },
    {
      "inputs": [
        {
          "internalType": "address",
          "name": "to",
          "type": "address"
        },
        {
          "internalType": "uint256",
          "name": "eventId",
          "type": "uint256"
        },
        {
          "internalType": "uint256",
          "name": "price",
          "type": "uint256"
        },
        {
          "internalType": "bool",
          "name": "requiresAgeVerification",
          "type": "bool"
        },
        {
          "internalType": "uint256",
          "name": "requiredAge",
          "type": "uint256"
        }
      ],
      "name": "mintTicket",
      "outputs": [
        {
          "internalType": "uint256",
          "name": "",
          "type": "uint256"
        }
      ],
      "stateMutability": "nonpayable",
      "type": "function"
    },
    {
      "inputs": [],
      "name": "name",
      "outputs": [
        {
          "internalType": "string",
          "name": "",
          "type": "string"
        }
      ],
      "stateMutability": "view",
      "type": "function"
    },
    {
      "inputs": [],
      "name": "owner",
      "outputs": [
        {
          "internalType": "address",
          "name": "",
          "type": "address"
        }
      ],
      "stateMutability": "view",
      "type": "function"
    },
    {
      "inputs": [
        {
          "internalType": "uint256",
          "name": "tokenId",
          "type": "uint256"
        }
      ],
      "name": "ownerOf",
      "outputs": [
        {
          "internalType": "address",
          "name": "",
          "type": "address"
        }
      ],
      "stateMutability": "view",
      "type": "function"
    },
    {
      "inputs": [
        {
          "internalType": "uint256",
          "name": "eventId",
          "type": "uint256"
        }
      ],
      "name": "purchaseTicket",
      "outputs": [],
      "stateMutability": "payable",
      "type": "function"
    },
    {
      "inputs": [],
      "name": "registry",
      "outputs": [
        {
          "internalType": "contract EventRegistry",
          "name": "",
          "type": "address"
        }
      ],
      "stateMutability": "view",
      "type": "function"
    },
    {
      "inputs": [],
      "name": "renounceOwnership",
      "outputs": [],
      "stateMutability": "nonpayable",
      "type": "function"
    },
    {
      "inputs": [
        {
          "internalType": "address",
          "name": "from",
          "type": "address"
        },
        {
          "internalType": "address",
          "name": "to",
          "type": "address"
        },
        {
          "internalType": "uint256",
          "name": "tokenId",
          "type": "uint256"
        }
      ],
      "name": "safeTransferFrom",
      "outputs": [],
      "stateMutability": "nonpayable",
      "type": "function"
    },
    {
      "inputs": [
        {
          "internalType": "address",
          "name": "from",
          "type": "address"
        },
        {
          "internalType": "address",
          "name": "to",
          "type": "address"
        },
        {
          "internalType": "uint256",
          "name": "tokenId",
          "type": "uint256"
        },
        {
          "internalType": "bytes",
          "name": "data",
          "type": "bytes"
        }
      ],
      "name": "safeTransferFrom",
      "outputs": [],
      "stateMutability": "nonpayable",
      "type": "function"
    },
    {
      "inputs": [
        {
          "internalType": "address",
          "name": "operator",
          "type": "address"
        },
        {
          "internalType": "bool",
          "name": "approved",
          "type": "bool"
        }
      ],
      "name": "setApprovalForAll",
      "outputs": [],
      "stateMutability": "nonpayable",
      "type": "function"
    },
    {
      "inputs": [
        {
          "internalType": "address",
          "name": "verifier",
          "type": "address"
        },
        {
          "internalType": "bool",
          "name": "status",
          "type": "bool"
        }
      ],
      "name": "setVerifier",
      "outputs": [],
      "stateMutability": "nonpayable",
      "type": "function"
    },
    {
      "inputs": [
        {
          "internalType": "bytes4",
          "name": "interfaceId",
          "type": "bytes4"
        }
      ],
      "name": "supportsInterface",
      "outputs": [
        {
          "internalType": "bool",
          "name": "",
          "type": "bool"
        }
      ],
      "stateMutability": "view",
      "type": "function"
    },
    {
      "inputs": [],
      "name": "symbol",
      "outputs": [
        {
          "internalType": "string",
          "name": "",
          "type": "string"
        }
      ],
      "stateMutability": "view",
      "type": "function"
    },
    {
      "inputs": [],
      "name": "ticketCounter",
      "outputs": [
        {
          "internalType": "uint256",
          "name": "",
          "type": "uint256"
        }
      ],
      "stateMutability": "view",
      "type": "function"
    },
    {
      "inputs": [
        {
          "internalType": "uint256",
          "name": "",
          "type": "uint256"
        }
      ],
      "name": "tickets",
      "outputs": [
        {
          "internalType": "uint256",
          "name": "eventId",
          "type": "uint256"
        },
        {
          "internalType": "uint256",
          "name": "price",
          "type": "uint256"
        },
        {
          "internalType": "bool",
          "name": "attended",
          "type": "bool"
        },
        {
          "internalType": "bool",
          "name": "resold",
          "type": "bool"
        },
        {
          "internalType": "uint256",
          "name": "originalPrice",
          "type": "uint256"
        },
        {
          "internalType": "bool",
          "name": "requiresAgeVerification",
          "type": "bool"
        },
        {
          "internalType": "uint256",
          "name": "requiredAge",
          "type": "uint256"
        }
      ],
      "stateMutability": "view",
      "type": "function"
    },
    {
      "inputs": [
        {
          "internalType": "uint256",
          "name": "tokenId",
          "type": "uint256"
        }
      ],
      "name": "tokenURI",
      "outputs": [
        {
          "internalType": "string",
          "name": "",
          "type": "string"
        }
      ],
      "stateMutability": "view",
      "type": "function"
    },
    {
      "inputs": [
        {
          "internalType": "address",
          "name": "from",
          "type": "address"
        },
        {
          "internalType": "address",
          "name": "to",
          "type": "address"
        },
        {
          "internalType": "uint256",
          "name": "tokenId",
          "type": "uint256"
        }
      ],
      "name": "transferFrom",
      "outputs": [],
      "stateMutability": "nonpayable",
      "type": "function"
    },
    {
      "inputs": [
        {
          "internalType": "address",
          "name": "newOwner",
          "type": "address"
        }
      ],
      "name": "transferOwnership",
      "outputs": [],
      "stateMutability": "nonpayable",
      "type": "function"
    },
    {
      "inputs": [
        {
          "internalType": "address",
          "name": "",
          "type": "address"
        }
      ],
      "name": "verifiers",
      "outputs": [
        {
          "internalType": "bool",
          "name": "",
          "type": "bool"
        }
      ],
      "stateMutability": "view",
      "type": "function"
    },
    {
      "inputs": [
        {
          "internalType": "uint256",
          "name": "tokenId",
          "type": "uint256"
        },
        {
          "internalType": "bool",
          "name": "ageVerified",
          "type": "bool"
        }
      ],
      "name": "verifyAttendance",
      "outputs": [],
      "stateMutability": "nonpayable",
      "type": "function"
    },
    {
      "inputs": [
        {
          "internalType": "uint256",
          "name": "eventId",
          "type": "uint256"
        }
      ],
      "name": "withdrawFunds",
      "outputs": [],
      "stateMutability": "nonpayable",
      "type": "function"
    }
  ],
  "transactionHash": "0x872beeaa3b5e741670e9480d7e8175358e56d432a101a4bfbc4d6b479dfbcfe6",
  "args": [
    "0xa513E6E4b8f2a923D98304ec87F64353C4D5C853",
    "0x5FC8d32690cc91D4c39d9d3abcBD16989F875707"
  ],
  "numDeployments": 1,
  "solcInputHash": "150eb236d96d3a7fbcf185319ee8b074",
  "bytecode": "0x608034620003e5576001600160401b0390601f1990601f906200230e3881900383810185168301919086831184841017620003cf578084926040948552833981010312620003e55762000052816200040a565b936200006260208093016200040a565b926200006d620003ea565b92600b84526a109b1a5b9ad51a58dad95d60aa1b818501526200008f620003ea565b906005825264424c494e4b60d81b81830152845196848811620003cf576000978854966001978881811c91168015620003c4575b85821014620003b0579081878493116200035d575b508490878311600114620002fc578b92620002f0575b5050600019600383901b1c191690871b1788555b8251948511620002dc5785548681811c91168015620002d1575b83821014620002bd5790818587969594931162000264575b5081938511600114620001ff5750508692620001f3575b5050600019600383901b1c191690821b1790555b3315620001da57600680546001600160a01b0319808216339081179093556040519590946001600160a01b03949385939091908416907f8be0079c531659141344cd1fd0a4f28419497f9722a3daafe3b4186f6b6457e09080a31683600a541617600a551690600b541617600b55611eee9081620004208239f35b604051631e4fbdf760e01b815260048101839052602490fd5b0151905038806200014b565b869593929193168589528389209389905b8282106200024a575050841162000230575b505050811b0190556200015f565b015160001960f88460031b161c1916905538808062000222565b848401518655889790950194938401939081019062000210565b9091929394508689528289208580880160051c820192858910620002b3575b9188978a9297969594930160051c01915b828110620002a457505062000134565b8b815588975089910162000294565b9250819262000283565b634e487b7160e01b89526022600452602489fd5b90607f16906200011c565b634e487b7160e01b88526041600452602488fd5b015190503880620000ee565b90848a9416918c8052868d20928d5b888282106200034657505084116200032c575b505050811b01885562000102565b015160001960f88460031b161c191690553880806200031e565b8385015186558d979095019493840193016200030b565b9091508a8052848b208780850160051c820192878610620003a6575b918b91869594930160051c01915b82811062000397575050620000d8565b8d81558594508b910162000387565b9250819262000379565b634e487b7160e01b8b52602260045260248bfd5b90607f1690620000c3565b634e487b7160e01b600052604160045260246000fd5b600080fd5b60408051919082016001600160401b03811183821017620003cf57604052565b51906001600160a01b0382168203620003e55756fe6080604081815260048036101561001557600080fd5b600092833560e01c90816301ffc9a7146115465750806306fdde031461147b578063081812fc14611440578063095ea7b3146113645780630d12479f1461133b578063155dd5ee1461119e5780631bfef5801461117257806323b872dd1461115a57806326fb8e851461112e5780633c66dcba14610fef5780633f69babd14610ec457806342842e0e14610e9557806350b4471214610e215780635b7baf6414610bee5780636352211e14610bbd5780636c82448714610b7f5780636e09c67f14610a9257806370a0823114610a3d578063715018a6146109e05780637b103999146109b75780638c4d59d0146109985780638da5cb5b1461096f57806395d89b4114610856578063a22cb465146107b3578063ac9b567114610761578063b88d4fde146106cc578063b948348c146103c9578063ba0ae43c146102e1578063bb099ee3146102ba578063c87b56dd14610267578063e985e9c5146102155763f2fde38b1461018357600080fd5b346102115760203660031901126102115761019c6115fa565b906101a56116fb565b6001600160a01b039182169283156101fb575050600654826bffffffffffffffffffffffff60a01b821617600655167f8be0079c531659141344cd1fd0a4f28419497f9722a3daafe3b4186f6b6457e08380a380f35b51631e4fbdf760e01b8152908101849052602490fd5b8280fd5b50503461026357806003193601126102635760ff816020936102356115fa565b61023d611615565b6001600160a01b0391821683526005875283832091168252855220549151911615158152f35b5080fd5b50919034610263576020366003190112610263576102886102b693356118c9565b50818151610295816116a1565b528051916102a2836116a1565b8252519182916020835260208301906115d5565b0390f35b5034610211576020366003190112610211576020928291358152600c845220549051908152f35b503461021157602036600319011261021157818360e09460c083516103058161166f565b82815282602082015282858201528260608201528260808201528260a082015201528235815260076020522082519161033d8361166f565b815493848452600183015490602085019182526002840154918186019060ff84161515825260ff606088019460081c161515845260c0600560ff60038901549760808b01988952890154169760a08a01981515895201549701968752825197885251602088015251151590860152511515606085015251608084015251151560a08301525160c0820152f35b509190602090816003193601126102115783359160018060a01b039160248584600a5416835192838092630368c42760e51b8252898c8301525afa9081156106c25786916106a0575b506101208101511561065d57848652600d835261043560ff838820541615611bc7565b60a081015134106106235761018081019383868651610590575b5050506101606009549461046286611c51565b60095561046f8633611c76565b5115159101518781101561057d5760059061052184519361048f8561166f565b888552898786013481528787019082825260608801908382528960808a019434865260a08b0196875260c08b019889528d815260078d5220985189555160018901556104ee6002890192511515839060ff801983541691151516179055565b51151561ff0082549160081b169061ff0019161790555160038601555115158a85019060ff801983541691151516179055565b51910155838552600c825280852080549034820180921161056a57555191825233917fcbea9c23945e351434f7ae5b1a435091cc278dd9dd0eba4c04203674014ca7d79190a380f35b634e487b7160e01b875260118852602487fd5b634e487b7160e01b875260218852602487fd5b600b5485516001623ad58360e11b03198152338c82019081526020810193909352938492839003604001918391165afa80156106195787906105df575b6105d79150611c05565b38838661044f565b508381813d8311610612575b6105f581836116bd565b8101031261060e576106096105d791611a95565b6105cd565b8680fd5b503d6105eb565b83513d89823e3d90fd5b815162461bcd60e51b81528088018490526014602482015273125b9cdd59999a58da595b9d081c185e5b595b9d60621b6044820152606490fd5b815162461bcd60e51b8152808801849052601c60248201527f4576656e74206e6f742061637469766520696e207265676973747279000000006044820152606490fd5b6106bc91503d8088833e6106b481836116bd565b810190611aa2565b38610412565b82513d88823e3d90fd5b509034610211576080366003190112610211576106e76115fa565b6106ef611615565b60443591856064359567ffffffffffffffff87116102635736602388011215610263578601359561072b610722886116df565b965196876116bd565b8686523660248883010111610263578661075e976024602093018389013786010152610758838383611727565b33611934565b80f35b50503461026357806003193601126102635761075e9061077f6115fa565b90610788611660565b916107916116fb565b60018060a01b03168452600860205283209060ff801983541691151516179055565b5090346102115780600319360112610211576107cd6115fa565b906107d6611660565b6001600160a01b0390921692831561084157503384526005602052808420838552602052610812828286209060ff801983541691151516179055565b5190151581527f17307eab39ab6107e8899845ad3d59bd9653f200f220920489ca2b5937696c3160203392a380f35b836024925191630b61174360e31b8352820152fd5b50913461096c578060031936011261096c578151918160019283549384811c91818616958615610962575b602096878510811461094f578899509688969785829a5291826000146109285750506001146108cd575b5050506102b692916108be9103856116bd565b519282849384528301906115d5565b91908693508083527fb10e2d527612073b26eecdfd717e6a320cf44b4afac2b0732d9fcbe2b7fa0cf65b82841061091057505050820101816108be6102b66108ab565b8054848a0186015288955087949093019281016108f7565b60ff19168782015293151560051b860190930193508492506108be91506102b690506108ab565b634e487b7160e01b835260228a52602483fd5b92607f1692610881565b80fd5b50503461026357816003193601126102635760065490516001600160a01b039091168152602090f35b5050346102635781600319360112610263576020906009549051908152f35b505034610263578160031936011261026357600a5490516001600160a01b039091168152602090f35b833461096c578060031936011261096c576109f96116fb565b600680546001600160a01b0319811690915581906001600160a01b03167f8be0079c531659141344cd1fd0a4f28419497f9722a3daafe3b4186f6b6457e08280a380f35b50913461096c57602036600319011261096c576001600160a01b03610a606115fa565b16928315610a7d5750806020938392526003845220549051908152f35b91516322718ad960e21b815291820152602490fd5b509034610211578060031936011261021157813591610aaf611660565b903385526008602052610ac760ff8487205416611e7b565b6001600160a01b03610ad8856118c9565b1615610b49579160209160ff7f32f2936f09f118a7a115b39d6b1c14973789c3ccf4ef153cb3e4cd3a011e988c9486885260078552838820015416610b3a575b5083855260078252600281862001600160ff198254161790555160018152a280f35b610b4390611c05565b38610b18565b606490602084519162461bcd60e51b8352820152601060248201526f151a58dad95d081b9bdd08199bdd5b9960821b6044820152fd5b5050346102635760203660031901126102635760209160ff9082906001600160a01b03610baa6115fa565b1681526008855220541690519015158152f35b50913461096c57602036600319011261096c5750610bdd602092356118c9565b90516001600160a01b039091168152f35b50903461021157602080600319360112610e1d578235918285526007825280852093610c19846118c9565b6001600160a01b0395903390871603610de85780548752600d845260ff838820541615610db057600101948554958615610d6d5787905584875260028452828720541684878215928315610d3a575b8282526002875285822080546001600160a01b03191690557fddf252ad1be2c89b69c2b068fc378daa952ba7f163c4a11628f55a4df523b3ef8280a4610d25578580808088335af1610cb8611904565b5015610cec5750907ff3f402280ef0a7905e124aa621b65eaeb2725c343e8b36d398ed78c29daf285c91519384523393a380f35b82606492519162461bcd60e51b8352820152601560248201527411985a5b1959081d1bc81cd95b99081499599d5b99605a1b6044820152fd5b836024925191637e27328960e01b8352820152fd5b600083815260046020526040902080546001600160a01b0319169055808252600387528582208054600019019055610c68565b835162461bcd60e51b8152808401869052601860248201527f416c726561647920726566756e646564206f72206672656500000000000000006044820152606490fd5b5082606492519162461bcd60e51b83528201526013602482015272115d995b9d081b9bdd0818d85b98d95b1b1959606a1b6044820152fd5b5082606492519162461bcd60e51b8352820152601060248201526f2737ba103a34b1b5b2ba1037bbb732b960811b6044820152fd5b8380fd5b509034610211576020366003190112610211578060e0938335815260076020522080549260ff60018301549360028401549060058360038701549587015416950154958151978852602088015282821615159087015260081c16151560608501526080840152151560a083015260c0820152f35b5050346102635761075e90610ea93661162b565b91925192610eb6846116a1565b858452610758838383611727565b5090346102115760203660031901126102115781359160018060a01b0360248582600a5416855192838092630368c42760e51b825289888301525afa908115610fe5579160208192610f2b948991610fcb575b500151163314908115610fbd575b50611e7b565b828452600e60205260ff8285205416610f7b5750818352600d6020528220805460ff191660011790557fdc3cb569b066460f4a22dffa05317bdcce5d3826382ed49a21f13e5fa2063d398280a280f35b6020606492519162461bcd60e51b8352820152601760248201527f46756e647320616c72656164792077697468647261776e0000000000000000006044820152fd5b905060065416331438610f25565b610fdf91503d808b833e6106b481836116bd565b38610f17565b84513d88823e3d90fd5b5090346102115760a03660031901126102115761100a6115fa565b602435906044356064359485151580960361060e57602096916110ee6005926110316116fb565b60095498899361104085611c51565b60095561104d8589611c76565b8951966110598861166f565b8988528c8801908282528b8901918183528c60608b019280845260808c0195865260a08c0196875260c08c01996084358b5281526020600790522099518a555160018a01556110bb60028a0192511515839060ff801983541691151516179055565b51151561ff0082549160081b169061ff0019161790555160038701555115159085019060ff801983541691151516179055565b5191015582518481526001600160a01b03909116907fcbea9c23945e351434f7ae5b1a435091cc278dd9dd0eba4c04203674014ca7d7908690a351908152f35b5034610211576020366003190112610211578160209360ff92358152600d855220541690519015158152f35b833461096c5761075e61116c3661162b565b91611727565b5034610211576020366003190112610211578160209360ff92358152600e855220541690519015158152f35b50346102115760209081600319360112610e1d5780359260018060a01b0360248682600a5416845192838092630368c42760e51b82528a898301525afa908115610619579085918891611321575b5001511633036112f057838552600d835261120d60ff828720541615611bc7565b838552600e835260ff81862054166112bb57838552600c8352808520918583549355600e8452818620600160ff198254161790558580808086335af1611251611904565b50156112835750519081527fd66662c0ded9e58fd31d5e44944bcfd07ffc15e6927ecc1382e7941cb7bd24c49190a280f35b83606492519162461bcd60e51b835282015260146024820152732330b4b632b2103a379039b2b7321022ba3432b960611b6044820152fd5b91606492519162461bcd60e51b8352820152601160248201527020b63932b0b23c903bb4ba34323930bbb760791b6044820152fd5b91606492519162461bcd60e51b8352820152600d60248201526c2737ba1037b933b0b734bd32b960991b6044820152fd5b61133591503d808a833e6106b481836116bd565b386111ec565b505034610263578160031936011261026357600b5490516001600160a01b039091168152602090f35b50903461021157806003193601126102115761137e6115fa565b9160243561138b816118c9565b3315158061142d575b80611404575b6113ee576001600160a01b039485169482918691167f8c5be1e5ebec7d5bd14f71427d1e84f3dd0314c0f7b2291e5b200ac8c7c3b9258880a48452602052822080546001600160a01b031916909117905580f35b835163a9fbf51f60e01b81523381850152602490fd5b506001600160a01b03811686526005602090815284872033885290528386205460ff161561139a565b506001600160a01b038116331415611394565b503461021157602036600319011261021157918260209335611461816118c9565b50825283528190205490516001600160a01b039091168152f35b50913461096c578060031936011261096c5781519181825492600184811c9181861695861561153c575b602096878510811461094f578899509688969785829a5291826000146109285750506001146114e1575050506102b692916108be9103856116bd565b91908693508280527f290decd9548b62a8d60345a988386fc84ba6bc95484008f6362f93160ef3e5635b82841061152457505050820101816108be6102b66108ab565b8054848a01860152889550879490930192810161150b565b92607f16926114a5565b92505034610211576020366003190112610211573563ffffffff60e01b811680910361021157602092506380ac58cd60e01b81149081156115a1575b8115611590575b5015158152f35b6301ffc9a760e01b14905038611589565b635b5e139f60e01b81149150611582565b60005b8381106115c55750506000910152565b81810151838201526020016115b5565b906020916115ee815180928185528580860191016115b2565b601f01601f1916010190565b600435906001600160a01b038216820361161057565b600080fd5b602435906001600160a01b038216820361161057565b6060906003190112611610576001600160a01b0390600435828116810361161057916024359081168103611610579060443590565b60243590811515820361161057565b60e0810190811067ffffffffffffffff82111761168b57604052565b634e487b7160e01b600052604160045260246000fd5b6020810190811067ffffffffffffffff82111761168b57604052565b90601f8019910116810190811067ffffffffffffffff82111761168b57604052565b67ffffffffffffffff811161168b57601f01601f191660200190565b6006546001600160a01b0316330361170f57565b60405163118cdaa760e01b8152336004820152602490fd5b6001600160a01b0391821692909183156118b057600092828452826020956002875260409684888820541696879133151580611817575b509060027fddf252ad1be2c89b69c2b068fc378daa952ba7f163c4a11628f55a4df523b3ef92846117e4575b858352600381528b8320805460010190558683525289812080546001600160a01b0319168517905580a416928383036117c35750505050565b6064945051926364283d7b60e01b8452600484015260248301526044820152fd5b600087815260046020526040902080546001600160a01b0319169055848352600381528b8320805460001901905561178a565b9193945091508061186f575b156118335785929187913861175e565b878688611850576024915190637e27328960e01b82526004820152fd5b905163177e802f60e01b81523360048201526024810191909152604490fd5b503387148015611894575b806118235750858252600481523385898420541614611823565b5086825260058152878220338352815260ff888320541661187a565b604051633250574960e11b815260006004820152602490fd5b6000818152600260205260409020546001600160a01b03169081156118ec575090565b60249060405190637e27328960e01b82526004820152fd5b3d1561192f573d90611915826116df565b9161192360405193846116bd565b82523d6000602084013e565b606090565b9293823b611944575b5050505050565b6119889060018060a01b038094169560405194859481630a85bd0160e11b9889885216600487015216602485015260448401526080606484015260848301906115d5565b03906020816000938185885af190829082611a08575b50506119d657826119ad611904565b80519190826119cf57604051633250574960e11b815260048101839052602490fd5b6020915001fd5b6001600160e01b031916036119f05750388080808061193d565b60249060405190633250574960e11b82526004820152fd5b909192506020813d8211611a48575b81611a24602093836116bd565b810103126102635751906001600160e01b03198216820361096c575090388061199e565b3d9150611a17565b81601f82011215611610578051611a66816116df565b92611a7460405194856116bd565b8184526020828401011161161057611a9291602080850191016115b2565b90565b5190811515820361161057565b9060208282031261161057815167ffffffffffffffff928382116116105701906101a0928383830312611610576040519384018481108282111761168b576040528251845260208301516001600160a01b038116810361161057602085015260408301518181116116105782611b19918501611a50565b604085015260608301518181116116105782611b36918501611a50565b60608501526080830151608085015260a083015160a085015260c083015160c085015260e083015160e0850152610100918284015191821161161057611b7d918401611a50565b90830152610120611b8f818301611a95565b9083015261014080820151908301526101608082015190600482101561161057830152611bc0610180809201611a95565b9082015290565b15611bce57565b60405162461bcd60e51b815260206004820152600f60248201526e115d995b9d0818d85b98d95b1b1959608a1b6044820152606490fd5b15611c0c57565b60405162461bcd60e51b815260206004820152601960248201527f41676520766572696669636174696f6e207265717569726564000000000000006044820152606490fd5b6000198114611c605760010190565b634e487b7160e01b600052601160045260246000fd5b6040805192611c84846116a1565b60008085526001600160a01b0394848616948515611e635783835260209660028852858420541684878215159283611e30575b81875260038b528887208054600101905582875260028b5288872080546001600160a01b031916831790557fddf252ad1be2c89b69c2b068fc378daa952ba7f163c4a11628f55a4df523b3ef8780a4611e18573b611d18575b505050505050565b85611d559185969798955180938192630a85bd0160e11b9788845233600485015287602485015260448401526080606484015260848301906115d5565b0381858a5af190829082611dd4575b5050611d9c57505050611d75611904565b8051939084611d96578251633250574960e11b815260048101859052602490fd5b84925001fd5b9194506001600160e01b031990911603611dbd575050388080808080611d10565b602492505190633250574960e11b82526004820152fd5b909192508781813d8311611e11575b611ded81836116bd565b810103126102635751906001600160e01b03198216820361096c5750903880611d64565b503d611de3565b84516339e3563760e11b815260048101849052602490fd5b600083815260046020526040902080546001600160a01b031916905580875260038b528887208054600019019055611cb7565b8451633250574960e11b815260048101849052602490fd5b15611e8257565b60405162461bcd60e51b815260206004820152600e60248201526d139bdd08185d5d1a1bdc9a5e995960921b6044820152606490fdfea26469706673582212209f934113581295cf5859db438fa05572b643fcd635cd2db988ddaabbcf7355e464736f6c63430008140033",
  "devdoc": {
    "errors": {
      "ERC721IncorrectOwner(address,uint256,address)": [
        {
          "details": "Indicates an error related to the ownership over a particular token. Used in transfers.",
          "params": {
            "owner": "Address of the current owner of a token.",
            "sender": "Address whose tokens are being transferred.",
            "tokenId": "Identifier number of a token."
          }
        }
      ],
      "ERC721InsufficientApproval(address,uint256)": [
        {
          "details": "Indicates a failure with the `operator`s approval. Used in transfers.",
          "params": {
            "operator": "Address that may be allowed to operate on tokens without being their owner.",
            "tokenId": "Identifier number of a token."
          }
        }
      ],
      "ERC721InvalidApprover(address)": [
        {
          "details": "Indicates a failure with the `approver` of a token to be approved. Used in approvals.",
          "params": {
            "approver": "Address initiating an approval operation."
          }
        }
      ],
      "ERC721InvalidOperator(address)": [
        {
          "details": "Indicates a failure with the `operator` to be approved. Used in approvals.",
          "params": {
            "operator": "Address that may be allowed to operate on tokens without being their owner."
          }
        }
      ],
      "ERC721InvalidOwner(address)": [
        {
          "details": "Indicates that an address can't be an owner. For example, `address(0)` is a forbidden owner in ERC-20. Used in balance queries.",
          "params": {
            "owner": "Address of the current owner of a token."
          }
        }
      ],
      "ERC721InvalidReceiver(address)": [
        {
          "details": "Indicates a failure with the token `receiver`. Used in transfers.",
          "params": {
            "receiver": "Address to which tokens are being transferred."
          }
        }
      ],
      "ERC721InvalidSender(address)": [
        {
          "details": "Indicates a failure with the token `sender`. Used in transfers.",
          "params": {
            "sender": "Address whose tokens are being transferred."
          }
        }
      ],
      "ERC721NonexistentToken(uint256)": [
        {
          "details": "Indicates a `tokenId` whose `owner` is the zero address.",
          "params": {
            "tokenId": "Identifier number of a token."
          }
        }
      ],
      "OwnableInvalidOwner(address)": [
        {
          "details": "The owner is not a valid owner account. (eg. `address(0)`)"
        }
      ],
      "OwnableUnauthorizedAccount(address)": [
        {
          "details": "The caller account is not authorized to perform an operation."
        }
      ]
    },
    "events": {
      "Approval(address,address,uint256)": {
        "details": "Emitted when `owner` enables `approved` to manage the `tokenId` token."
      },
      "ApprovalForAll(address,address,bool)": {
        "details": "Emitted when `owner` enables or disables (`approved`) `operator` to manage all of its assets."
      },
      "Transfer(address,address,uint256)": {
        "details": "Emitted when `tokenId` token is transferred from `from` to `to`."
      }
    },
    "kind": "dev",
    "methods": {
      "approve(address,uint256)": {
        "details": "Gives permission to `to` to transfer `tokenId` token to another account. The approval is cleared when the token is transferred. Only a single account can be approved at a time, so approving the zero address clears previous approvals. Requirements: - The caller must own the token or be an approved operator. - `tokenId` must exist. Emits an {Approval} event."
      },
      "balanceOf(address)": {
        "details": "Returns the number of tokens in ``owner``'s account."
      },
      "getApproved(uint256)": {
        "details": "Returns the account approved for `tokenId` token. Requirements: - `tokenId` must exist."
      },
      "isApprovedForAll(address,address)": {
        "details": "Returns if the `operator` is allowed to manage all of the assets of `owner`. See {setApprovalForAll}"
      },
      "name()": {
        "details": "Returns the token collection name."
      },
      "owner()": {
        "details": "Returns the address of the current owner."
      },
      "ownerOf(uint256)": {
        "details": "Returns the owner of the `tokenId` token. Requirements: - `tokenId` must exist."
      },
      "renounceOwnership()": {
        "details": "Leaves the contract without owner. It will not be possible to call `onlyOwner` functions. Can only be called by the current owner. NOTE: Renouncing ownership will leave the contract without an owner, thereby disabling any functionality that is only available to the owner."
      },
      "safeTransferFrom(address,address,uint256)": {
        "details": "Safely transfers `tokenId` token from `from` to `to`, checking first that contract recipients are aware of the ERC-721 protocol to prevent tokens from being forever locked. Requirements: - `from` cannot be the zero address. - `to` cannot be the zero address. - `tokenId` token must exist and be owned by `from`. - If the caller is not `from`, it must have been allowed to move this token by either {approve} or   {setApprovalForAll}. - If `to` refers to a smart contract, it must implement {IERC721Receiver-onERC721Received}, which is called upon   a safe transfer. Emits a {Transfer} event."
      },
      "safeTransferFrom(address,address,uint256,bytes)": {
        "details": "Safely transfers `tokenId` token from `from` to `to`. Requirements: - `from` cannot be the zero address. - `to` cannot be the zero address. - `tokenId` token must exist and be owned by `from`. - If the caller is not `from`, it must be approved to move this token by either {approve} or {setApprovalForAll}. - If `to` refers to a smart contract, it must implement {IERC721Receiver-onERC721Received}, which is called upon   a safe transfer. Emits a {Transfer} event."
      },
      "setApprovalForAll(address,bool)": {
        "details": "Approve or remove `operator` as an operator for the caller. Operators can call {transferFrom} or {safeTransferFrom} for any token owned by the caller. Requirements: - The `operator` cannot be the address zero. Emits an {ApprovalForAll} event."
      },
      "supportsInterface(bytes4)": {
        "details": "Returns true if this contract implements the interface defined by `interfaceId`. See the corresponding https://eips.ethereum.org/EIPS/eip-165#how-interfaces-are-identified[ERC section] to learn more about how these ids are created. This function call must use less than 30 000 gas."
      },
      "symbol()": {
        "details": "Returns the token collection symbol."
      },
      "tokenURI(uint256)": {
        "details": "Returns the Uniform Resource Identifier (URI) for `tokenId` token."
      },
      "transferFrom(address,address,uint256)": {
        "details": "Transfers `tokenId` token from `from` to `to`. WARNING: Note that the caller is responsible to confirm that the recipient is capable of receiving ERC-721 or else they may be permanently lost. Usage of {safeTransferFrom} prevents loss, though the caller must understand this adds an external call which potentially creates a reentrancy vulnerability. Requirements: - `from` cannot be the zero address. - `to` cannot be the zero address. - `tokenId` token must be owned by `from`. - If the caller is not `from`, it must be approved to move this token by either {approve} or {setApprovalForAll}. Emits a {Transfer} event."
      },
      "transferOwnership(address)": {
        "details": "Transfers ownership of the contract to a new account (`newOwner`). Can only be called by the current owner."
      }
    },
    "version": 1
  },
  "userdoc": {
    "kind": "user",
    "methods": {},
    "version": 1
  },
  "storageLayout": {
    "storage": [
      {
        "astId": 317,
        "contract": "contracts/EventTicket.sol:EventTicket",
        "label": "_name",
        "offset": 0,
        "slot": "0",
        "type": "t_string_storage"
      },
      {
        "astId": 319,
        "contract": "contracts/EventTicket.sol:EventTicket",
        "label": "_symbol",
        "offset": 0,
        "slot": "1",
        "type": "t_string_storage"
      },
      {
        "astId": 323,
        "contract": "contracts/EventTicket.sol:EventTicket",
        "label": "_owners",
        "offset": 0,
        "slot": "2",
        "type": "t_mapping(t_uint256,t_address)"
      },
      {
        "astId": 327,
        "contract": "contracts/EventTicket.sol:EventTicket",
        "label": "_balances",
        "offset": 0,
        "slot": "3",
        "type": "t_mapping(t_address,t_uint256)"
      },
      {
        "astId": 331,
        "contract": "contracts/EventTicket.sol:EventTicket",
        "label": "_tokenApprovals",
        "offset": 0,
        "slot": "4",
        "type": "t_mapping(t_uint256,t_address)"
      },
      {
        "astId": 337,
        "contract": "contracts/EventTicket.sol:EventTicket",
        "label": "_operatorApprovals",
        "offset": 0,
        "slot": "5",
        "type": "t_mapping(t_address,t_mapping(t_address,t_bool))"
      },
      {
        "astId": 8,
        "contract": "contracts/EventTicket.sol:EventTicket",
        "label": "_owner",
        "offset": 0,
        "slot": "6",
        "type": "t_address"
      },
      {
        "astId": 7469,
        "contract": "contracts/EventTicket.sol:EventTicket",
        "label": "tickets",
        "offset": 0,
        "slot": "7",
        "type": "t_mapping(t_uint256,t_struct(TicketMetadata)7464_storage)"
      },
      {
        "astId": 7473,
        "contract": "contracts/EventTicket.sol:EventTicket",
        "label": "verifiers",
        "offset": 0,
        "slot": "8",
        "type": "t_mapping(t_address,t_bool)"
      },
      {
        "astId": 7475,
        "contract": "contracts/EventTicket.sol:EventTicket",
        "label": "ticketCounter",
        "offset": 0,
        "slot": "9",
        "type": "t_uint256"
      },
      {
        "astId": 7478,
        "contract": "contracts/EventTicket.sol:EventTicket",
        "label": "registry",
        "offset": 0,
        "slot": "10",
        "type": "t_contract(EventRegistry)7439"
      },
      {
        "astId": 7481,
        "contract": "contracts/EventTicket.sol:EventTicket",
        "label": "ageVerifier",
        "offset": 0,
        "slot": "11",
        "type": "t_contract(AgeRestrictionVerifier)6779"
      },
      {
        "astId": 7485,
        "contract": "contracts/EventTicket.sol:EventTicket",
        "label": "escrowBalance",
        "offset": 0,
        "slot": "12",
        "type": "t_mapping(t_uint256,t_uint256)"
      },
      {
        "astId": 7489,
        "contract": "contracts/EventTicket.sol:EventTicket",
        "label": "eventCancelled",
        "offset": 0,
        "slot": "13",
        "type": "t_mapping(t_uint256,t_bool)"
      },
      {
        "astId": 7493,
        "contract": "contracts/EventTicket.sol:EventTicket",
        "label": "fundsWithdrawn",
        "offset": 0,
        "slot": "14",
        "type": "t_mapping(t_uint256,t_bool)"
      }
    ],
    "types": {
      "t_address": {
        "encoding": "inplace",
        "label": "address",
        "numberOfBytes": "20"
      },
      "t_bool": {
        "encoding": "inplace",
        "label": "bool",
        "numberOfBytes": "1"
      },
      "t_contract(AgeRestrictionVerifier)6779": {
        "encoding": "inplace",
        "label": "contract AgeRestrictionVerifier",
        "numberOfBytes": "20"
      },
      "t_contract(EventRegistry)7439": {
        "encoding": "inplace",
        "label": "contract EventRegistry",
        "numberOfBytes": "20"
      },
      "t_mapping(t_address,t_bool)": {
        "encoding": "mapping",
        "key": "t_address",
        "label": "mapping(address => bool)",
        "numberOfBytes": "32",
        "value": "t_bool"
      },
      "t_mapping(t_address,t_mapping(t_address,t_bool))": {
        "encoding": "mapping",
        "key": "t_address",
        "label": "mapping(address => mapping(address => bool))",
        "numberOfBytes": "32",
        "value": "t_mapping(t_address,t_bool)"
      },
      "t_mapping(t_address,t_uint256)": {
        "encoding": "mapping",
        "key": "t_address",
        "label": "mapping(address => uint256)",
        "numberOfBytes": "32",
        "value": "t_uint256"
      },
      "t_mapping(t_uint256,t_address)": {
        "encoding": "mapping",
        "key": "t_uint256",
        "label": "mapping(uint256 => address)",
        "numberOfBytes": "32",
        "value": "t_address"
      },
      "t_mapping(t_uint256,t_bool)": {
        "encoding": "mapping",
        "key": "t_uint256",
        "label": "mapping(uint256 => bool)",
        "numberOfBytes": "32",
        "value": "t_bool"
      },
      "t_mapping(t_uint256,t_struct(TicketMetadata)7464_storage)": {
        "encoding": "mapping",
        "key": "t_uint256",
        "label": "mapping(uint256 => struct EventTicket.TicketMetadata)",
        "numberOfBytes": "32",
        "value": "t_struct(TicketMetadata)7464_storage"
      },
      "t_mapping(t_uint256,t_uint256)": {
        "encoding": "mapping",
        "key": "t_uint256",
        "label": "mapping(uint256 => uint256)",
        "numberOfBytes": "32",
        "value": "t_uint256"
      },
      "t_string_storage": {
        "encoding": "bytes",
        "label": "string",
        "numberOfBytes": "32"
      },
      "t_struct(TicketMetadata)7464_storage": {
        "encoding": "inplace",
        "label": "struct EventTicket.TicketMetadata",
        "members": [
          {
            "astId": 7451,
            "contract": "contracts/EventTicket.sol:EventTicket",
            "label": "eventId",
            "offset": 0,
            "slot": "0",
            "type": "t_uint256"
          },
          {
            "astId": 7453,
            "contract": "contracts/EventTicket.sol:EventTicket",
            "label": "price",
            "offset": 0,
            "slot": "1",
            "type": "t_uint256"
          },
          {
            "astId": 7455,
            "contract": "contracts/EventTicket.sol:EventTicket",
            "label": "attended",
            "offset": 0,
            "slot": "2",
            "type": "t_bool"
          },
          {
            "astId": 7457,
            "contract": "contracts/EventTicket.sol:EventTicket",
            "label": "resold",
            "offset": 1,
            "slot": "2",
            "type": "t_bool"
          },
          {
            "astId": 7459,
            "contract": "contracts/EventTicket.sol:EventTicket",
            "label": "originalPrice",
            "offset": 0,
            "slot": "3",
            "type": "t_uint256"
          },
          {
            "astId": 7461,
            "contract": "contracts/EventTicket.sol:EventTicket",
            "label": "requiresAgeVerification",
            "offset": 0,
            "slot": "4",
            "type": "t_bool"
          },
          {
            "astId": 7463,
            "contract": "contracts/EventTicket.sol:EventTicket",
            "label": "requiredAge",
            "offset": 0,
            "slot": "5",
            "type": "t_uint256"
          }
        ],
        "numberOfBytes": "192"
      },
      "t_uint256": {
        "encoding": "inplace",
        "label": "uint256",
        "numberOfBytes": "32"
      }
    }
  }
}