{
  "address": "0xDc64a140Aa3E981100a9becA4E685f962f0cF6C9",
  "abi": [
    {
      "inputs": [
        {
          "internalType": "uint256[2]",
          "name": "_pA",
          "type": "uint256[2]"
        },
        {
          "internalType": "uint256[2][2]",
          "name": "_pB",
          "type": "uint256[2][2]"
        },
        {
          "internalType": "uint256[2]",
          "name": "_pC",
          "type": "uint256[2]"
        },
        {
          "internalType": "uint256[5]",
          "name": "_pubSignals",
          "type": "uint256[5]"
        }
      ],
      "name": "verifyProof",
      "outputs": [
        {
          "internalType": "bool",
          "name": "",
          "type": "bool"
        }
      ],
      "stateMutability": "view",
      "type": "function"
    }
  ],
  "transactionHash": "0x6dfde10821667285415271ee414878388e1e3499795829e4bc01d0e624f9e841",
  "args": [],
  "numDeployments": 1,
  "solcInputHash": "150eb236d96d3a7fbcf185319ee8b074",
  "bytecode": "0x608080604052346100165761066b908161001c8239f35b600080fdfe6080604052600436101561001257600080fd5b6000803560e01c6334baeab91461002857600080fd5b3461032d576101a0908160031936011261032d5761004536610330565b913660c4116103295761005736610342565b366101a41161032557602093849161040060405261011e6101043561007b81610350565b6101196101243561008b81610350565b6101146101443561009b81610350565b61010f61016435936100ac85610350565b61010a61018435976100bd89610350565b7f2274c2c24f2109ccc91ced64ef5923c2da7fbf4e6221ebc0be5bba3a05d1e4246080527f23c2844e3c0f9c45a9a389ad491b28848e293ee637db42ac4880751c7d6c582c60a052610383565b61040d565b610497565b610521565b6105ab565b61010093828593358452847f30644e72e131a029b85045b68181585d97816a916871ca8d3c208c16d87cfd479101358103066101205260443561014052606435610160526084356101805260a43590527f191c0bb3d3ef0e94ccbe93d81c8a0c00445dbb86a73fc36e3bc89e567f1ec09c6101c0527f27ffe7f2dcbcaeb04293868c2102451956d2022038ea584e9b5dac1daa00a5a06101e0527f1e7609f3baf1344aec47bacf510953a4a818bfc3b0a4460a8019d787a56bc613610200527f2d732943c293bda0db7d83b840ed9ad110f19061f5ad749959452b5faa82ad33610220527f2160acb87200e57c1eb57abd02df1052d8d6f82f5e7dc9aef98c1b183eedadc8610240527f0908526db44568b3d794e98fa347937c29a4db99110eb623790f106a75dd6bf6610260526080516102805260a0516102a0527f198e9393920d483a7260bfb731fb5d25f1aa493335a9e71297e485b7aef312c290816102c0527f1800deef121f1e76426a00665e5c4479674322d4f75edadd46debd5cd992f6ed806102e0527f090689d0585ff075ec9e99ad690c3395bc4b313370b38ef355acdadcd122975b9061030093828552867f12c85ea5db8c6deb4aab71808dcb408fe3d1e7690c43d37b4ce6cc0166fa7daa948561032052803561034052013561036052610380526103a0526103c0526103e0528160086107cf195a01fa9051168152f35b8280fd5b5080fd5b80fd5b9060049160441161033d57565b600080fd5b9060c4916101041161033d57565b7f30644e72e131a029b85045b68181585d2833e84879b9709143e1f593f0000001111561037957565b6000805260206000f35b604051907f115d05917cf4a90961c43c1d63d373dfa1656cd748106ff8b227d4cede360bb182527f2a41f7f0039e94b38847b376d90cae010136598aeff2b914737fcf140d05f8db6020830152604082019081526107cf196040836060816007855a01fa156103795760409260066080939284938451905260a05160608401525a01fa1561037957565b604051907f02dab58900de11744eecc2188178f2b04eb91144b4b9c10fea98dc8a27ac96b082527f282af63ed92e1cd7c3b4d6102f0772082aabf36940bd95bd94375c134423e5a26020830152604082019081526107cf196040836060816007855a01fa156103795760409260066080939284938451905260a05160608401525a01fa1561037957565b604051907f05c790eabf326f2b39ec6d4ce70f9dae9e8c54860a0fdd9efcfa7bd747ed59fe82527f108119659e187d83f5c5fd4b7daed8fe7be0993d3e967eddd9f218b7991d4e876020830152604082019081526107cf196040836060816007855a01fa156103795760409260066080939284938451905260a05160608401525a01fa1561037957565b604051907f1653ea1ca73186949d1fafb75d080f96cbb50ed7f3365ce70745b6b52f14491982527f08773abe4ee11b35fa616652e82d9cddee5516c3dfe0405efcb3c3f3ed75b0cd6020830152604082019081526107cf196040836060816007855a01fa156103795760409260066080939284938451905260a05160608401525a01fa1561037957565b604051907f0212742d1d22431d4d166bda02846a545824d15ea0fa51d6229296c5b876251382527f2732486b614b6e7965c268fc3d585b5dc209e15dc66c71142b821a8dbac05bc66020830152604082019081526107cf196040836060816007855a01fa156103795760409260066080939284938451905260a05160608401525a01fa156103795756fea26469706673582212206672b08a3de8113907b687954b45e01e962c05dcc1a4cdd10c1664df51e603f164736f6c63430008140033",
  "devdoc": {
    "kind": "dev",
    "methods": {},
    "version": 1
  },
  "userdoc": {
    "kind": "user",
    "methods": {},
    "version": 1
  },
  "storageLayout": {
    "storage": [],
    "types": null
  }
}