{
  "address": "0x0165878A594ca255338adfa4d48449f69242Eb8F",
  "abi": [
    {
      "inputs": [
        {
          "internalType": "uint256",
          "name": "",
          "type": "uint256"
        },
        {
          "internalType": "uint256",
          "name": "resalePrice",
          "type": "uint256"
        },
        {
          "internalType": "uint256",
          "name": "royaltyPercent",
          "type": "uint256"
        }
      ],
      "name": "processResaleSplit",
      "outputs": [
        {
          "internalType": "uint256",
          "name": "organizerRoyalty",
          "type": "uint256"
        },
        {
          "internalType": "uint256",
          "name": "sellerProceeds",
          "type": "uint256"
        }
      ],
      "stateMutability": "pure",
      "type": "function"
    },
    {
      "inputs": [
        {
          "internalType": "uint256",
          "name": "",
          "type": "uint256"
        }
      ],
      "name": "royalties",
      "outputs": [
        {
          "internalType": "address",
          "name": "organizer",
          "type": "address"
        },
        {
          "internalType": "address",
          "name": "platform",
          "type": "address"
        },
        {
          "internalType": "uint256",
          "name": "organizerShare",
          "type": "uint256"
        },
        {
          "internalType": "uint256",
          "name": "platformShare",
          "type": "uint256"
        }
      ],
      "stateMutability": "view",
      "type": "function"
    },
    {
      "inputs": [
        {
          "internalType": "uint256",
          "name": "",
          "type": "uint256"
        },
        {
          "internalType": "address",
          "name": "",
          "type": "address"
        },
        {
          "internalType": "uint256",
          "name": "amount",
          "type": "uint256"
        },
        {
          "internalType": "uint256",
          "name": "",
          "type": "uint256"
        }
      ],
      "name": "splitPayment",
      "outputs": [
        {
          "internalType": "uint256",
          "name": "organizerAmount",
          "type": "uint256"
        },
        {
          "internalType": "uint256",
          "name": "platformAmount",
          "type": "uint256"
        }
      ],
      "stateMutability": "pure",
      "type": "function"
    }
  ],
  "transactionHash": "0x2306613a39f7d8279b72163c436748bfc17baedd6d597b435a4162b72646bf53",
  "args": [],
  "numDeployments": 1,
  "solcInputHash": "19f798fc06b8cbc04336ca82f2a4407a",
  "bytecode": "0x60808060405234610016576101a3908161001c8239f35b600080fdfe604060808152600436101561001357600080fd5b6000803560e01c80635743a2fd146101055780637f77f574146100ac5763e36dc7b81461003f57600080fd5b346100a95760803660031901126100a9576024356001600160a01b038116036100a957604435908160011b9082820460021483151715610095575060646100889104809261014a565b9082519182526020820152f35b634e487b7160e01b81526011600452602490fd5b80fd5b5090346101015760203660031901126101015780608092600435815280602052209060018060a01b03918281541692600182015416916003600283015492015492815194855260208501528301526060820152f35b5080fd5b50346100a95760603660031901126100a95760243590604435908183029183830414831517156100955750606461013e9104809261014a565b82519182526020820152f35b9190820391821161015757565b634e487b7160e01b600052601160045260246000fdfea2646970667358221220bc32a2aab5e6a621e36fe04e8e5253fb294e148676f827c0b1d7238e07c2362764736f6c63430008140033",
  "devdoc": {
    "kind": "dev",
    "methods": {},
    "version": 1
  },
  "userdoc": {
    "kind": "user",
    "methods": {},
    "version": 1
  },
  "storageLayout": {
    "storage": [
      {
        "astId": 15,
        "contract": "contracts/RoyaltyManager.sol:RoyaltyManager",
        "label": "royalties",
        "offset": 0,
        "slot": "0",
        "type": "t_mapping(t_uint256,t_struct(RoyaltySplit)10_storage)"
      }
    ],
    "types": {
      "t_address": {
        "encoding": "inplace",
        "label": "address",
        "numberOfBytes": "20"
      },
      "t_mapping(t_uint256,t_struct(RoyaltySplit)10_storage)": {
        "encoding": "mapping",
        "key": "t_uint256",
        "label": "mapping(uint256 => struct RoyaltyManager.RoyaltySplit)",
        "numberOfBytes": "32",
        "value": "t_struct(RoyaltySplit)10_storage"
      },
      "t_struct(RoyaltySplit)10_storage": {
        "encoding": "inplace",
        "label": "struct RoyaltyManager.RoyaltySplit",
        "members": [
          {
            "astId": 3,
            "contract": "contracts/RoyaltyManager.sol:RoyaltyManager",
            "label": "organizer",
            "offset": 0,
            "slot": "0",
            "type": "t_address"
          },
          {
            "astId": 5,
            "contract": "contracts/RoyaltyManager.sol:RoyaltyManager",
            "label": "platform",
            "offset": 0,
            "slot": "1",
            "type": "t_address"
          },
          {
            "astId": 7,
            "contract": "contracts/RoyaltyManager.sol:RoyaltyManager",
            "label": "organizerShare",
            "offset": 0,
            "slot": "2",
            "type": "t_uint256"
          },
          {
            "astId": 9,
            "contract": "contracts/RoyaltyManager.sol:RoyaltyManager",
            "label": "platformShare",
            "offset": 0,
            "slot": "3",
            "type": "t_uint256"
          }
        ],
        "numberOfBytes": "128"
      },
      "t_uint256": {
        "encoding": "inplace",
        "label": "uint256",
        "numberOfBytes": "32"
      }
    }
  }
}